S00C0000736166652E7372656379
S11300000C942A000C9447000C9447000C9447006D
S11300100C9447000C9447000C9447000C94470040
S11300200C9447000C9447000C9447000C94470030
S11300300C9447000C9447000C9447000C94470020
S11300400C9447000C9447000C9447000C94470010
S11300500C94470011241FBECFE5D8E0DEBFCDBF0E
S113006010E0A0E6B0E0E8E7FCE002C005900D92E5
S1130070AE3EB107D9F710E0AEEEB0E001C01D927C
S1130080AE3EB107E1F70E94F5040C943A060C94D5
S11300900000843409F471C0853448F4823499F141
S11300A0833408F04DC0813409F083C00FC0823618
S11300B051F1833620F4813609F07BC007C08336C2
S11300C009F43EC0843609F074C057C0413069F465
S11300D02AB381E090E0AC0102C0440F551F6A9539
S11300E0E2F7BA01622B6ABB08952AB381E090E07B
S11300F0AC0102C0440F551F6A95E2F7BA0160953E
S113010062236ABB0895413069F427B381E090E02B
S1130110AC0102C0440F551F6A95E2F7BA01622B85
S113012067BB089527B381E090E0AC0102C0440F9F
S1130130551F6A95E2F7BA016095622367BB08957B
S1130140413069F424B381E090E0AC0102C0440F73
S1130150551F6A95E2F7BA01622B64BB089524B374
S113016081E090E0AC0102C0440F551F6A95E2F7AC
S1130170BA016095622364BB0895413069F421B3E8
S113018081E090E0AC0102C0440F551F6A95E2F78C
S1130190BA01622B61BB089521B381E090E0AC0108
S11301A002C0440F551F6A95E2F7BA0160956223B5
S11301B061BB0895843409F471C0853448F48234F1
S11301C099F1833408F04DC0813409F083C00FC025
S11301D0823651F1833620F4813609F07BC007C0A2
S11301E0833609F43EC0843609F074C057C04130E8
S11301F069F42BB381E090E0AC0102C0440F551FB9
S11302006A95E2F7BA01622B6BBB08952BB381E0C8
S113021090E0AC0102C0440F551F6A95E2F7BA01A1
S1130220609562236BBB0895413069F428B381E083
S113023090E0AC0102C0440F551F6A95E2F7BA0181
S1130240622B68BB089528B381E090E0AC0102C042
S1130250440F551F6A95E2F7BA016095622368BBA3
S11302600895413069F425B381E090E0AC0102C007
S1130270440F551F6A95E2F7BA01622B65BB0895D6
S113028025B381E090E0AC0102C0440F551F6A958C
S1130290E2F7BA016095622365BB0895413069F4C1
S11302A022B381E090E0AC0102C0440F551F6A956F
S11302B0E2F7BA01622B62BB089522B381E090E0B9
S11302C0AC0102C0440F551F6A95E2F7BA0160956C
S11302D0622362BB0895843409F43DC0853440F43C
S11302E08234F9F0833450F5813409F040C00CC0F5
S11302F08236B9F0833618F48136C9F505C08336E1
S1130300E9F08436A1F527C02BB381E090E0AC017D
S113031002C0440F551F6A95E2F7BA0162276BBB0E
S1130320089528B381E090E0AC0102C0440F551F4A
S11303306A95E2F7BA01622768BB089525B381E0A4
S113034090E0AC0102C0440F551F6A95E2F7BA0170
S1130350622765BB089522B381E090E0AC0102C03E
S1130360440F551F6A95E2F7BA01622762BB0895EC
S11303708434B1F1853438F48234E1F0833428F5DF
S11303808134C1F50CC08236A9F0833618F4813665
S113039089F505C08336C9F0843661F521C029B3D7
S11303A030E0C90102C0959587956A95E2F7982FC8
S11303B0917020C026B330E0C90102C0959587959D
S11303C06A95E2F7982F917015C023B330E0C90104
S11303D002C0959587956A95E2F7982F91700AC0A7
S11303E020B330E0C90102C0959587956A95E2F77C
S11303F0982F9170892F08958434D9F0853438F476
S1130400823499F0833498F48134A1F40CC0823698
S113041061F0833618F4813669F405C0833639F007
S1130420843641F406C06ABB089567BB089564BB73
S1130430089561BB08958434D9F0853438F4823446
S113044099F0833498F48134A1F40CC0823661F0BD
S1130450833618F4813669F405C0833639F084365E
S113046041F406C06BBB089568BB089565BB08954D
S113047062BB0895843409F1853438F48234A9F0D8
S11304808334B8F48134E1F40CC0823671F08336DD
S113049018F48136A9F405C0833659F0843681F402
S11304A00CC08BB380958BBB089588B3809588BBB3
S11304B0089585B3809585BB089582B3809582BBEA
S11304C008958434D9F0853438F4823499F083342F
S11304D098F48134A1F40CC0823661F0833618F4A8
S11304E0813669F405C0833639F0843641F406C098
S11304F099B305C096B303C093B301C090B3892FD9
S11305000895843409F471C0853448F4823499F12F
S1130510833408F04DC0813409F083C00FC08236A3
S113052051F1833620F4813609F07BC007C083364D
S113053009F43EC0843609F074C057C0413069F4F0
S11305402BB381E090E0AC0102C0440F551F6A95C3
S1130550E2F7BA01622B6BBB08952BB381E090E004
S1130560AC0102C0440F551F6A95E2F7BA016095C9
S113057062236BBB0895413069F428B381E090E0B5
S1130580AC0102C0440F551F6A95E2F7BA01622B11
S113059068BB089528B381E090E0AC0102C0440F29
S11305A0551F6A95E2F7BA016095622368BB089506
S11305B0413069F425B381E090E0AC0102C0440FFE
S11305C0551F6A95E2F7BA01622B65BB089525B3FE
S11305D081E090E0AC0102C0440F551F6A95E2F738
S11305E0BA016095622365BB0895413069F422B372
S11305F081E090E0AC0102C0440F551F6A95E2F718
S1130600BA01622B62BB089522B381E090E0AC0191
S113061002C0440F551F6A95E2F7BA016095622340
S113062062BB08959FBB8EBB6DBBE29AE19A8CB30B
S113063081FDFDCF08959FBB8EBBE09AE099FECF6C
S11306408DB3089582E46FE00E94FC0182E464E0CB
S113065041E00E94810282E465E041E00E9481025F
S113066082E466E041E00E94810282E467E041E0C6
S11306700E94810282E460E041E00E94DA0082E4A8
S113068061E041E00E94DA0082E462E041E00E941D
S1130690DA0082E463E041E00E94DA0008950F93F7
S11306A01F93CF93DF93CDB7DEB760970FB6F8945F
S11306B0DEBF0FBECDBFDE011196E0E6F0E080E1C3
S11306C001900D928150E1F700E082E4602F40E058
S11306D00E94DA0010E0612F6C5F82E40E94B8018E
S11306E0882361F4E02FF0E0EE0FFF1FEE0FFF1FF1
S11306F0E10FF11DEC0FFD1F818104C01F5F143059
S113070051F70BC060960FB6F894DEBF0FBECDBF95
S1130710DF91CF911F910F91089582E4602F41E002
S11307200E94DA000F5F043081F68FEFEBCF83E491
S113073066E041E00E94DA008FE99FE00197F1F75B
S113074000C0000083E466E040E00E94DA008FE924
S11307509FE00197F1F700C000000895CF93C82FE0
S1130760482F42954F70417083E460E00E94DA00A4
S11307704C2F429546954770417083E461E00E9496
S1130780DA004C2F4295469546954370417083E4B8
S113079062E00E94DA004C2F441F4427441F83E484
S11307A063E00E94DA0083E464E040E00E94DA003F
S11307B00E9497034C2F417083E460E00E94DA00AA
S11307C04C2F4695417083E461E00E94DA004C2F7F
S11307D046954695417083E462E00E94DA00C6952E
S11307E0C695C6954C2F417083E463E00E94DA00FD
S11307F083E464E040E00E94DA000E949703CF9112
S113080008958FE799EAA3E081509040A040E1F772
S113081000C0000083E460E041E00E94490083E4FA
S113082061E041E00E94490083E462E041E00E940B
S1130830490083E463E041E00E94490083E464E00A
S113084041E00E94490083E465E041E00E944900E0
S113085083E466E041E00E94490083E465E040E00F
S11308600E94DA0082E00E94AE03AFE1BEE4119779
S1130870F1F700C0000088E20E94AE038FEC97E01D
S11308800197F1F700C000008EE00E94AE03AFECC8
S1130890B7E01197F1F700C0000081E00E94AE03B9
S11308A08FE19EE40197F1F700C0000086E00E940A
S11308B0AE03AFECB7E01197F1F700C00000089564
S11308C0CF93C82F482F42954F70417083E460E066
S11308D00E94DA004C2F429546954770417083E49C
S11308E061E00E94DA004C2F42954695469543708C
S11308F0417083E462E00E94DA004C2F441F4427D5
S1130900441F83E463E00E94DA0083E464E041E08E
S11309100E94DA000E9497034C2F417083E460E048
S11309200E94DA004C2F4695417083E461E00E94F6
S1130930DA004C2F46954695417083E462E00E94AC
S1130940DA00C695C695C6954C2F417083E463E0E2
S11309500E94DA0083E464E041E00E94DA000E942D
S11309609703CF91089581E00E94AE0308958330E8
S113097080F4613180F4662381F0882381F0813032
S113098019F4962F91580CC0823051F4962F91543B
S113099007C090E805C090E803C090E801C090E863
S11309A0892F0E94AE030895CF93DF93EC018881D1
S11309B0882331F021960E94600489918823D9F715
S11309C0DF91CF91089541E00E944900089541E0EC
S11309D00E94DA00089540E00E94DA0008950E941F
S11309E06B0108950E94B8010895CF93DF9300D05E
S11309F000D00F92CDB7DEB70E9401040E942203FB
S1130A0083E467E00E94E3048CE00E94AE0380E28A
S1130A1090E00E941B030097C9F180E790E00E94D8
S1130A20D4040F2EF0E3EF2EFF24F02D0E944F0389
S1130A30182F8F3FD9F3C701612F70E00E94120372
S1130A40812F0E9460048FEF94E3ACE081509040CA
S1130A50A040E1F700C0000080E10E94AE038AE2FA
S1130A600E9460040894E11CF11C94E3E916F1046B
S1130A70E9F680E290E060E070E00E9412030E94D8
S1130A80B3048AE790E00E94D404F3C089E890E0BC
S1130A900E94D40482E061E00E94B70484E990E0FB
S1130AA00E94D4040E944F038D8381538230D0F777
S1130AB08FEF91EEA4E081509040A040E1F700C098
S1130AC000000E94B3040F2EF2E37F2EF02D4E019E
S1130AD00894811C911C0F2EF5E0AF2EBB24F02D41
S1130AE0AC0EBD1E682C592C80EA90E00E94D40400
S1130AF06401062D152D0E944F038F3FE1F3D801A9
S1130B008D938D010E9460048FEF94E3ACE08150DB
S1130B109040A040E1F700C0000080E10E94AE03D5
S1130B208AE20E9460040A151B0529F70F2EF0E3E0
S1130B30EF2EFF24F02D00E0D6011D916D01C701B9
S1130B400E941B03212F30E02817390739F40F5F67
S1130B500894E11CF11C043079F703C0043009F057
S1130B605CC00E94B3048AEA90E00E94D4048FEF30
S1130B7093EDA0E381509040A040E1F700C0000055
S1130B800E94B3049D81913349F489EB90E00E9463
S1130B90D40483E467E00E94E7046BC0AD81A23310
S1130BA009F067C00E94B30480E790E00E94D40477
S1130BB00F2EF0E3EF2EFF24F02D0E944F03182F89
S1130BC08F3FD9F3C701612F70E00E941203812F78
S1130BD00E9460048FEF94E3ACE081509040A04009
S1130BE0E1F700C0000080E10E94AE038AE20E94A7
S1130BF060040894E11CF11C94E3E916F104E9F69D
S1130C0080E290E060E070E00E9412030E94B3046E
S1130C108AE790E00E94D4042CC00E94B30485ECBF
S1130C2090E00E94D4048FEF93EDA0E381509040B4
S1130C30A040E1F700C000000E94B30484ED90E0FE
S1130C400E94D404872D0E9460048FEF93EDA0E3EB
S1130C5081509040A040E1F700C000000E94B3041E
S1130C607A949FE2791609F03FCF81EE90E00E94DA
S10B0C70D404FFCFF894FFCF78
S1130C783738392F3435362A3132332D41303D2B2C
S1130C8853657420506173733A0050617373776FBE
S1130C98726420536176656400313A436865636B16
S1130CA820505700323A4368616E676520505700F8
S1130CB8456E7465722050573A005269676874200B
S1130CC850617373776F72640053616665204F7067
S1130CD8656E65640057726F6E6720506173737731
S1130CE86F726400547269616C73204C6566743A5F
S1110CF8005361666520436C6F7365640000F1
S9030000FC
